:020000040800F2
:1000000000500020C50B0008C30B0008C30B0008FC
:10001000C30B0008C30B0008C30B0008000000005E
:10002000000000000000000000000000C30B0008FA
:10003000C30B000800000000C30B0008C30B00083E
:10004000C30B0008C30B0008C30B0008C30B000858
:10005000C30B0008C30B0008C30B0008C30B000848
:10006000C30B0008C30B0008C30B0008C30B000838
:10007000C30B0008C30B0008C30B0008C30B000828
:10008000C30B0008C30B0008C30B0008C30B000818
:10009000C30B0008C30B0008C30B0008C30B000808
:1000A000C30B0008C30B0008C30B0008C30B0008F8
:1000B000C30B0008C30B0008C30B0008C30B0008E8
:1000C000C30B0008C30B0008C30B0008C30B0008D8
:1000D000C30B0008C30B0008C30B0008C30B0008C8
:1000E000C30B0008C30B0008C30B0008000000008E
:1000F0000000000000000000000000000000000000
:0C01000000000000000000005FF808F1A3
:10010C0010B5054C237833B9044B13B10448AFF345
:10011C0000800123237010BD30040020000000007B
:10012C00C8100008084B10B51BB108490848AFF3BC
:10013C0000800848036803B910BD074B002BFBD0A7
:10014C00BDE81040184700BF000000003404002038
:10015C00C8100008300400200000000081F00041AD
:10016C0002E000BF83F0004330B54FEA41044FEA90
:10017C00430594EA050F08BF90EA020F1FBF54EA2B
:10018C00000C55EA020C7FEA645C7FEA655C00F0C7
:10019C00E2804FEA5454D4EB5555B8BF6D420CDD98
:1001AC002C4480EA020281EA030382EA000083EA1B
:1001BC00010180EA020281EA0303362D88BF30BDBB
:1001CC0011F0004F4FEA01314FF4801C4CEA113111
:1001DC0002D0404261EB410113F0004F4FEA033370
:1001EC004CEA133302D0524263EB430394EA050FFB
:1001FC0000F0A780A4F10104D5F1200E0DDB02FA6A
:10020C000EFC22FA05F2801841F1000103FA0EF2FD
:10021C00801843FA05F359410EE0A5F120050EF1C3
:10022C00200E012A03FA0EFC28BF4CF0020C43FAF4
:10023C0005F3C01851EBE37101F0004507D54FF001
:10024C00000EDCF1000C7EEB00006EEB0101B1F551
:10025C00801F1BD3B1F5001F0CD349085FEA300097
:10026C004FEA3C0C04F101044FEA445212F5800FA2
:10027C0080F09A80BCF1004F08BF5FEA500C50F13F
:10028C00000041EB045141EA050130BD5FEA4C0C22
:10029C00404141EB010111F4801FA4F10104E9D1AB
:1002AC0091F0000F04BF01460020B1FA81F308BFA2
:1002BC002033A3F10B03B3F120020CDA0C3208DD6E
:1002CC0002F1140CC2F10C0201FA0CF021FA02F149
:1002DC000CE002F11402D8BFC2F1200C01FA02F1B9
:1002EC0020FA0CFCDCBF41EA0C019040E41AA2BFDE
:1002FC0001EB0451294330BD6FEA04041F3C1CDAA6
:10030C000C340EDC04F11404C4F1200220FA04F0C5
:10031C0001FA02F340EA030021FA04F345EA03016F
:10032C0030BDC4F10C04C4F1200220FA02F001FA31
:10033C0004F340EA0300294630BD21FA04F02946B3
:10034C0030BD94F0000F83F4801306BF81F480114C
:10035C000134013D4EE77FEA645C18BF7FEA655CBF
:10036C0029D094EA050F08BF90EA020F05D054EA91
:10037C00000C04BF1946104630BD91EA030F1EBF96
:10038C000021002030BD5FEA545C05D1400049419A
:10039C0028BF41F0004130BD14F580043CBF01F58D
:1003AC00801130BD01F0004545F0FE4141F4700173
:1003BC004FF0000030BD7FEA645C1ABF194610464E
:1003CC007FEA655C1CBF0B46024650EA013406BF4F
:1003DC0052EA033591EA030F41F4002130BD00BF0E
:1003EC0090F0000F04BF0021704730B54FF48064CB
:1003FC0004F132044FF000054FF0000150E700BF4C
:10040C0090F0000F04BF0021704730B54FF48064AA
:10041C0004F1320410F0004548BF40424FF0000197
:10042C003EE700BF42004FEAE2014FEA31014FEADA
:10043C0002701FBF12F07F4393F07F4F81F0605129
:10044C00704792F0000F14BF93F07F4F704730B598
:10045C004FF4607401F0004521F0004120E700BF2B
:10046C0050EA010208BF704730B54FF000050AE0B2
:10047C0050EA010208BF704730B511F0004502D5B3
:10048C00404261EB41014FF4806404F132045FEAB5
:10049C00915C3FF4DCAE4FF003025FEADC0C18BF5A
:1004AC0003325FEADC0C18BF033202EBDC02C2F150
:1004BC00200300FA03FC20FA02F001FA03FE40EAE2
:1004CC000E0021FA02F11444C1E600BF70B54FF0E2
:1004DC00FF0C4CF4E06C1CEA11541DBF1CEA1355C4
:1004EC0094EA0C0F95EA0C0F00F0DEF82C4481EA2C
:1004FC00030621EA4C5123EA4C5350EA013518BF4C
:10050C0052EA033541F4801143F4801338D0A0FB38
:10051C0002CE4FF00005E1FB02E506F00042E0FBE5
:10052C0003E54FF00006E1FB03569CF0000F18BFEB
:10053C004EF0010EA4F1FF04B6F5007F64F5407493
:10054C0004D25FEA4E0E6D4146EB060642EAC62126
:10055C0041EA55514FEAC52040EA5E504FEACE2E93
:10056C00B4F1FD0C88BFBCF5E06F1ED8BEF1004F96
:10057C0008BF5FEA500E50F1000041EB045170BD12
:10058C0006F0004646EA010140EA020081EA030156
:10059C00B4EB5C04C2BFD4EB0C0541EA045170BD52
:1005AC0041F480114FF0000E013C00F3AB8014F1CC
:1005BC00360FDEBF002001F0004170BDC4F1000415
:1005CC00203C35DA0C341BDC04F11404C4F1200596
:1005DC0000FA05F320FA04F001FA05F240EA0200F1
:1005EC0001F0004221F0004110EBD37021FA04F627
:1005FC0042EB06015EEA430E08BF20EAD37070BDE1
:10060C00C4F10C04C4F1200500FA04F320FA05F03F
:10061C0001FA04F240EA020001F0004110EBD37041
:10062C0041F100015EEA430E08BF20EAD37070BDB1
:10063C00C4F1200500FA05F24EEA020E20FA04F38A
:10064C0001FA05F243EA020321FA04F001F0004139
:10065C0021FA04F220EA020000EBD3705EEA430EAA
:10066C0008BF20EAD37070BD94F0000F0FD101F0D9
:10067C000046400041EB010111F4801F08BF013C12
:10068C00F7D041EA060195F0000F18BF704703F050
:10069C000046520043EB030313F4801F08BF013DD7
:1006AC00F7D043EA0603704794EA0C0F0CEA135593
:1006BC0018BF95EA0C0F0CD050EA410618BF52EA4D
:1006CC004306D1D181EA030101F000414FF0000053
:1006DC0070BD50EA410606BF1046194652EA430661
:1006EC0019D094EA0C0F02D150EA013613D195EAD5
:1006FC000C0F05D152EA03361CBF104619460AD11D
:10070C0081EA030101F0004141F0FE4141F4700126
:10071C004FF0000070BD41F0FE4141F4780170BD16
:10072C0070B54FF0FF0C4CF4E06C1CEA11541DBF7B
:10073C001CEA135594EA0C0F95EA0C0F00F0A7F87D
:10074C00A4EB050481EA030E52EA03354FEA0131AA
:10075C0000F088804FEA03334FF0805545EA1313BD
:10076C0043EA12634FEA022245EA111545EA106585
:10077C004FEA00260EF000419D4208BF964244F11C
:10078C00FD0404F5407402D25B084FEA3202B61A3B
:10079C0065EB03055B084FEA32024FF480104FF40F
:1007AC00002CB6EB020E75EB030E22BFB61A754683
:1007BC0040EA0C005B084FEA3202B6EB020E75EB16
:1007CC00030E22BFB61A754640EA5C005B084FEA7E
:1007DC003202B6EB020E75EB030E22BFB61A75464B
:1007EC0040EA9C005B084FEA3202B6EB020E75EB56
:1007FC00030E22BFB61A754640EADC0055EA060E17
:10080C0018D04FEA051545EA16754FEA06164FEA59
:10081C00C30343EA52734FEAC2025FEA1C1CC0D105
:10082C0011F4801F0BD141EA00014FF000004FF092
:10083C00004CB6E711F4801F04BF01430020B4F153
:10084C00FD0C88BFBCF5E06F3FF6AFAEB5EB030C0B
:10085C0004BFB6EB020C5FEA500C50F1000041EB08
:10086C00045170BD0EF0004E4EEA113114EB5C04D5
:10087C00C2BFD4EB0C0541EA045170BD41F48011A8
:10088C004FF0000E013C90E645EA060E8DE60CEAB0
:10089C00135594EA0C0F08BF95EA0C0F3FF43BAFCD
:1008AC0094EA0C0F0AD150EA01347FF434AF95EA84
:1008BC000C0F7FF425AF104619462CE795EA0C0F68
:1008CC0006D152EA03353FF4FDAE1046194622E735
:1008DC0050EA410618BF52EA43067FF4C5AE50EA0F
:1008EC0041047FF40DAF52EA43057FF4EBAE12E7FF
:1008FC004FF0FF3C06E000BF4FF0010C02E000BFE0
:10090C004FF0010C4DF804CD4FEA410C7FEA6C5CC2
:10091C004FEA430C18BF7FEA6C5C1BD001B050EA65
:10092C00410C0CBF52EA430C91EA030F02BF90EA50
:10093C00020F0020704710F1000F91EA030F58BF0F
:10094C00994208BF90422CBFD8176FEAE37040F071
:10095C00010070474FEA410C7FEA6C5C02D150EA0F
:10096C00013C07D14FEA430C7FEA6C5CD6D152EACA
:10097C00033CD3D05DF8040B704700BF844610468F
:10098C0062468C461946634600E000BF01B5FFF78E
:10099C00B7FF002848BF10F1000F01BD4DF808ED5E
:1009AC00FFF7F4FF0CBF012000205DF808FB00BF2F
:1009BC004DF808EDFFF7EAFF34BF012000205DF889
:1009CC0008FB00BF4DF808EDFFF7E0FF94BF0120D6
:1009DC0000205DF808FB00BF4DF808EDFFF7CEFFD7
:1009EC0094BF012000205DF808FB00BF4DF808ED16
:1009FC00FFF7C4FF34BF012000205DF808FB00BFE7
:100A0C004A0011D212F5001211D20DD56FF4787381
:100A1C00B3EB62520ED44FEAC12343F0004343EAD6
:100A2C00505323FA02F070474FF00000704750EA21
:100A3C00013002D14FF0FF3070474FF0000070478B
:100A4C002DE9F04307460E46DFF82C9185B0397836
:100A5C00002900F0888025297ED17A1C00241746B5
:100A6C0012F8011BA1F13003D8B2092806D804EB07
:100A7C00840403EB440404F0FF04F0E764292DD054
:100A8C000DD8252968D063296BD1D9F800000368EB
:100A9C001A683368191D31601978904761E06F2925
:100AAC0007D073295DD133681A1D32601C68013C74
:100ABC000AE0002C55D0D9F8000020210368013C35
:100ACC001B689847E4B2F4E714F8011F002948D0DA
:100ADC00D9F8000003681B689847F5E733681D6870
:100AEC001A1D002D326006DAD9F800002D2103689A
:100AFC006D421B68984700230A2104AA03F10108E0
:100B0C00134495FBF1F201FB12555FFA88F830356E
:100B1C0003F80C5C43461546002AEED14546A54227
:100B2C0008D2D9F80000302103681B6898476B1C69
:100B3C00DDB2F4E7B8F1000F13D0D9F8000008F1DA
:100B4C00FF3804AB5FFA88F803EB0802036812F86D
:100B5C000C1C1B689847EDE7D9F8000003681B686C
:100B6C009847013773E7044B186803681B6898476C
:100B7C00012005B0BDE8F0830400002070477047E9
:100B8C000EB403B5074903AB53F8042B086002A954
:100B9C0041F8043D1046FFF753FF02B05DF804EB3B
:100BAC0003B0704704000020014B0360704700BF86
:100BBC008C1000087047FEE70E490F4B0F485B1A6C
:100BCC009B0800229A4205D050F8224041F822405E
:100BDC000132F7E70A4B0B4A0021934202D043F84B
:100BEC00041BFAE700F010F800F0A8F900F086F802
:100BFC00FEE700BF0000002030040020E4100008D5
:100C0C00300400208C040020384B82B01A6842F06B
:100C1C0001021A605968364A0A405A601A6822F072
:100C2C00847222F480321A601A6822F480221A60CC
:100C3C005A6822F4FE025A604FF41F029A60002296
:100C4C00009201921A6842F480321A601A6802F417
:100C5C0000320192009A01320092019A1AB9009A5C
:100C6C00B2F5A06FF2D11A6812F4003218BF01224B
:100C7C000192019A012A05D01E4B4FF000629A6036
:100C8C0002B070471C4A116841F0100111601168E4
:100C9C0021F003011160116841F0020111605A68E2
:100CAC005A605A685A605A6842F480625A605A68AC
:100CBC0022F47C125A605A6842F4E8125A601A689C
:100CCC0042F080721A601968084A8901FBD5516894
:100CDC0021F003015160516841F0020151605A68E2
:100CEC0002F00C02082AFAD1C6E700BF001002403D
:100CFC000000FFF800ED00E000200240032208B5E0
:100D0C000021054800F01CF8034A1368B3FA83F37A
:100D1C005B09C2F88030F8E734012242074B0344E8
:100D2C000020B3F5004F03D90130A3F50043F8E7D9
:100D3C009B0803EB0010C0B2704700BF00FFDEBD84
:100D4C0038B5FFF7EBFF0429C0F3071300F00F00D1
:100D5C0028BF00229B02072888BF083803F1804374
:100D6C0003F5843384BFC0B2043380001D68C0B265
:100D7C000F24844025EA04041C601C6842EA8102AA
:100D8C0002FA00F02043186038BD70474FF4E1625E
:100D9C000282828A642192B28282002202830185BD
:100DAC000921818540F20141027081818272C272F7
:100DBC0080F834204272704708B5064B0649184635
:100DCC00FFF7E4FF054A1846BDE80840044900F067
:100DDC00A9B800BF4C0400200054004000000020C3
:100DEC00970D000803881B06FCD589B281807047DB
:100DFC0070470000F8B504010846B1FBF4F5FFF7A5
:100E0C00EFFA064620460F46FFF7EAFA02460B4673
:100E1C0030463946FFF784FC064628460F46FFF756
:100E2C00DFFA02460B4630463946FFF79BF90022A3
:100E3C000F4BFFF74BFB0F460646FFF7E1FD044651
:100E4C00FFF7CEFA02460B4630463946FFF78AF9D1
:100E5C000022084BFFF7C0FD00280CBF2046601C89
:100E6C00102804BF0135002040EA0510F8BD00BF72
:100E7C00000030400000E03F10B50446094B084626
:100E8C009C420CBF08490949FFF7B4FF082380B204
:100E9C002081238342F22C03A38100232382A3828B
:100EAC0010BD00BF0038014000A24A0400512502C9
:100EBC004068FFF79DBF4068FFF794BF10B504462C
:100ECC00024B0360FFF776FE204610BDA010000811
:100EDC0070B50D4604461646FFF766FE044B2846D1
:100EEC0084E828003146FFF7C7FF204670BD00BFDD
:100EFC00A010000810B5074C4FF4165206492046B6
:100F0C00FFF7E6FF2046BDE81040044A044900F014
:100F1C0009B800BF84040020003801400000002004
:100F2C00C90E00080B460146184600F001B800BF78
:100F3C0013460A460146022000F028B870B50F4E41
:100F4C000F4D761BB61018BF002405D0013455F890
:100F5C00043B9847A642F9D10A4E0B4D00F0A2F87B
:100F6C00761BB61018BF002406D0013455F8043B8C
:100F7C009847A642F9D170BD70BD00BFD0100008D3
:100F8C00D0100008E0100008D01000082DE9F04740
:100F9C00254C064625688846D5F848419246994620
:100FAC00C4B360681F2817DC411C76B104EB8003C6
:100FBC00C3F888A0D4F88851012282401543022E30
:100FCC00C4F88851C3F808911ED0831C61600020BE
:100FDC0044F82380BDE8F087144B03B34FF4C8707A
:100FEC00AFF300800446D0B1D5F84831002784E82F
:100FFC0088003846C5F848410121C4F88871C4F806
:10100C008C71002EE1D0D1E7D4F88C311A43C4F89E
:10101C008C21DAE705F5A674C5F84841C1E74FF015
:10102C00FF30BDE8F08700BFAC10000800000000E6
:10103C00024B13B1024800F005B8704700000000E5
:10104C005D100008002301461A461846FFF79EBFA4
:10105C0038B5074D074C2C1BA41005D0013C55F896
:10106C00043D9847002CF9D1BDE8384000F020B879
:10107C00E4100008E0100008000000000000000070
:10108C00890B00088B0B00088D0B0008000000007A
:10109C0000000000C30E0008BD0E00088D0B0008F8
:1010AC0008000020F8B500BFF8BC08BC9E4670478D
:0C10BC00F8B500BFF8BC08BC9E467047A9
:0810C80068FEFF7F010000003B
:1010D0003D10000831010008C50D0008010F00088F
:0410E0000D010008F6
:1010E400000000008404002000000000F40200203E
:1010F4005C030020C4030020000000000000000086
:1011040000000000000000000000000000000000DB
:1011140000000000000000000000000000000000CB
:1011240000000000000000000000000000000000BB
:1011340000000000000000000000000000000000AB
:10114400000000000000000000000000000000009B
:10115400000000000000000000000000000000008B
:10116400000000000000000000000000000000007B
:10117400000000000000000000000000000000006B
:10118400000000000000000000000000000000005B
:1011940001000000000000000E33CDAB34126DE6F8
:1011A400ECDE05000B000000000000000000000061
:1011B400000000000000000000000000000000002B
:1011C400000000000000000000000000000000001B
:1011D400000000000000000000000000000000000B
:1011E40000000000000000000000000000000000FB
:0400000508000BC51F
:00000001FF
